:020000040800F2
:1000000000040020F1120008C1140008C114000807
:10001000C1140008C1140008C1140008C11400086C
:10002000C1140008C1140008C1140008F11400082C
:10003000C1140008C1140008C1140008D11500083B
:10004000C1140008C1140008C1140008C11400083C
:10005000C1140008C1140008C1140008C11400082C
:10006000C1140008C1140008C1140008913200082E
:10007000C1320008F1320008313300087133000842
:10008000B1330008F1330008C114000871430008BF
:10009000D1460008C1140008C1140008C1140008AA
:1000A000C1140008813E0008C1140008613E000828
:1000B000C1140008C1140008C1140008B1370008B9
:1000C000C1380008C1140008C1140008C114000898
:1000D000C1140008C1140008C1140008C1140008AC
:0C00E000C1140008C1140008C11400087D
:1000F0002DE9F04F99B002F0C3F901F0E9FA04F0EC
:1001000067FF4FF40060C4F201004FF480710222D7
:1001100004F086F84FF44060C4F201004FF400513F
:10012000112204F07DF84FF44060C4F201004FF456
:100130008041102204F074F84FF44060C4F20100D2
:100140004FF40041112204F06BF84FF480544FF447
:100150004060C4F20104C4F201004FF48051112246
:1001600004F05EF806224FF40061204604F058F8CF
:10017000C54801F0C5FEC54801F0C2FE4FF48063DA
:100180006361C34802F074FFC148C24902F098FF9E
:100190004FF40062C0496261C04802F051FABF48A2
:1001A00002F076FA00254FF47A7001F059FE7F22B2
:1001B000BB4B4FF498710095BA4801F001FEBA4864
:1001C00002F026FBB949B84802F09AFAB64802F0A4
:1001D000BFFA41F2481741F2591041F2501101267D
:1001E000C2F20000C2F20001C2F20007DFF8C0B2A2
:1001F00006700E703D7040F62864C2F20004E26999
:100200001389DB07FCD51821A94AA74802F0C0FAD8
:10021000BBF90250BBF90070BBF90A00EE05BBF94F
:100220000640BBF90810BBF91230BBF90E50BBF900
:10023000102046EAC776C005BBF90470DB052643EB
:1002400040EAC170BBF91610BBF90C4046EAC7265C
:10025000284343EAC277BBF9145015960F4340EA8E
:10026000C422159947EAC52400201692179400F07D
:10027000ABFD40F6BC6EC2F2000E0746CEF8007031
:100280001699002000F0A0FD40F6E4730646C2F285
:1002900000031E601799002000F096FD40F6B8613B
:1002A000C2F20001086041F20000C2F200000068E2
:1002B00000F0CAFA044638460D4600F0C5FA70A3AD
:1002C000D3E9002300F014FB02460B4620462946E2
:1002D00000F05CF900F024FD40F6F86241F2000302
:1002E0008146C2F20002C2F200031068C3F8009017
:1002F00000F0AAFA044630460D4600F0A5FA60A3C5
:10030000D3E9002300F0F4FA02460B4620462946C2
:1003100000F03CF900F004FD40F6F86841F24C11A1
:100320008246C2F20008C2F2000109683846C8F8E5
:1003300000A000F049FD00F087FA51A3D3E90023A3
:1003400000F000FC00F0ECFC844641F25410C2F2D4
:10035000000040F6E8720168C2F200023046C2F8BE
:1003600000C0CDF84CC000F02FFD00F06DFA44A3A2
:10037000D3E9002300F0E6FB00F0D2FC41F259146F
:1003800040F6F46EC2F2000EC2F20004CEF8000095
:10039000034694F90000129300F0CCFD41F2501591
:1003A000C2F20005804695F9000000F0C3FD41F25D
:1003B0004811C2F20001054691F9000000F0BAFDB3
:1003C00041460446384600F00BFE294602464846A0
:1003D000149200F005FE0146149800F0F7FCDDF8D9
:1003E0004CC021468146604600F0FAFD0146484671
:1003F00000F0ECFC00F044FF40F6F063C2F20003B2
:1004000018704146304600F0EBFD294680465046C4
:1004100000F0E6FD0146404600F0D8FC1299054682
:100420000846214600F0DCFD0146284600F0CEFCDF
:1004300000F026FF41F24C1441F25412C2F20004C3
:10044000C2F200022760166041F2581740F6FC66BF
:10045000C2F20007C2F20006387004F0E1FDD6F8DF
:10046000D0004FF480530568C4F201032C784FF498
:100470000061042C19611DD00A2001F0F1FCBAE6DC
:100480007B14AE47E17A843F38110020EC0F002046
:10049000FC0E0020D05E000808080020140E00208A
:1004A000414F000808100020280E0020805F00083F
:1004B000C00E002040F6C062C2F200021046B2F93F
:1004C00006C0B2F908E0B2F91210B0F91630B2F96C
:1004D0000480B2F90A70B2F90C60B2F90E50B2F9A8
:1004E0001040B2F9142015988DE800510791089238
:1004F0000993039704960595069400F0C1FE47B250
:1005000016980A9700F0BCFE46B217980B9600F0BA
:10051000B7FE40F6C06540F6D47A40F6F06441F28A
:10052000581E40F6D071C2F20005C2F2000AC2F2B3
:100530000004C2F2000EC2F20001B5F90020B5F9C4
:100540000230BAF9067094F90050BAF908609EF9C1
:10055000004091F9001040B20C9011910D970E9649
:100560000F9510940248034904F0BAFA84E700BFDB
:10057000FC0E0020985F0008AFF30080AFF300800E
:1005800081F0004102E000BF83F0004330B54FEA44
:1005900041044FEA430594EA050F08BF90EA020FB1
:1005A0001FBF54EA000C55EA020C7FEA645C7FEA44
:1005B000655C00F0E2804FEA5454D4EB5555B8BF67
:1005C0006D420CDD2C4480EA020281EA030382EAD8
:1005D000000083EA010180EA020281EA0303362D6A
:1005E00088BF30BD11F0004F4FEA01314FF4801C3D
:1005F0004CEA113102D0404261EB410113F0004F4F
:100600004FEA03334CEA133302D0524263EB430305
:1006100094EA050F00F0A780A4F10104D5F1200EA3
:100620000DDB02FA0EFC22FA05F2801841F10001FE
:1006300003FA0EF2801843FA05F359410EE0A5F1D2
:1006400020050EF1200E012A03FA0EFC28BF4CF003
:10065000020C43FA05F3C01851EBE37101F00045B9
:1006600007D54FF0000EDCF1000C7EEB00006EEBC6
:100670000101B1F5801F1BD3B1F5001F0CD3490850
:100680005FEA30004FEA3C0C04F101044FEA4452A7
:1006900012F5800F80F09A80BCF1004F08BF5FEA2E
:1006A000500C50F1000041EB045141EA050130BD0E
:1006B0005FEA4C0C404141EB010111F4801FA4F1B1
:1006C0000104E9D191F0000F04BF01460020B1FA06
:1006D00081F308BF2033A3F10B03B3F120020CDA3E
:1006E0000C3208DD02F1140CC2F10C0201FA0CF01C
:1006F00021FA02F10CE002F11402D8BFC2F1200C81
:1007000001FA02F120FA0CFCDCBF41EA0C01904036
:10071000E41AA2BF01EB0451294330BD6FEA04047F
:100720001F3C1CDA0C340EDC04F11404C4F120026A
:1007300020FA04F001FA02F340EA030021FA04F37C
:1007400045EA030130BDC4F10C04C4F1200220FAD3
:1007500002F001FA04F340EA0300294630BD21FA11
:1007600004F0294630BD94F0000F83F4801306BFD7
:1007700081F480110134013D4EE77FEA645C18BFCB
:100780007FEA655C29D094EA050F08BF90EA020F62
:1007900005D054EA000C04BF1946104630BD91EA5A
:1007A000030F1EBF0021002030BD5FEA545C05D15D
:1007B0004000494128BF41F0004130BD14F580049C
:1007C0003CBF01F5801130BD01F0004545F0FE4110
:1007D00041F470014FF0000030BD7FEA645C1ABF45
:1007E000194610467FEA655C1CBF0B46024650EA7C
:1007F000013406BF52EA033591EA030F41F40021A8
:1008000030BD00BF90F0000F04BF0021704730B52D
:100810004FF4806404F132044FF000054FF0000102
:1008200050E700BF90F0000F04BF0021704730B5C3
:100830004FF4806404F1320410F0004548BF404298
:100840004FF000013EE700BF42004FEAE2014FEAED
:1008500031014FEA02701FBF12F07F4393F07F4FC8
:1008600081F06051704792F0000F14BF93F07F4FFA
:10087000704730B54FF4607401F0004521F000413D
:1008800020E700BF50EA010208BF704730B54FF0C3
:1008900000050AE050EA010208BF704730B511F0C8
:1008A000004502D5404261EB41014FF4806404F100
:1008B00032045FEA915C3FF4DCAE4FF003025FEA82
:1008C000DC0C18BF03325FEADC0C18BF033202EB0A
:1008D000DC02C2F1200300FA03FC20FA02F001FA64
:1008E00003FE40EA0E0021FA02F11444C1E600BF03
:1008F00070B54FF0FF0C4CF4E06C1CEA11541DBFB6
:100900001CEA135594EA0C0F95EA0C0F00F0DEF880
:100910002C4481EA030621EA4C5123EA4C5350EA65
:10092000013518BF52EA033541F4801143F48013B6
:1009300038D0A0FB02CE4FF00005E1FB02E506F047
:100940000042E0FB03E54FF00006E1FB03569CF09C
:10095000000F18BF4EF0010EA4F1FF04B6F5007FA2
:1009600064F5407404D25FEA4E0E6D4146EB060614
:1009700042EAC62141EA55514FEAC52040EA5E509D
:100980004FEACE2EB4F1FD0C88BFBCF5E06F1ED847
:10099000BEF1004F08BF5FEA500E50F1000041EB7E
:1009A000045170BD06F0004646EA010140EA02002B
:1009B00081EA0301B4EB5C04C2BFD4EB0C0541EA4D
:1009C000045170BD41F480114FF0000E013C00F362
:1009D000AB8014F1360FDEBF002001F0004170BD86
:1009E000C4F10004203C35DA0C341BDC04F114049F
:1009F000C4F1200500FA05F320FA04F001FA05F22B
:100A000040EA020001F0004221F0004110EBD370F7
:100A100021FA04F642EB06015EEA430E08BF20EA23
:100A2000D37070BDC4F10C04C4F1200500FA04F3C6
:100A300020FA05F001FA04F240EA020001F0004158
:100A400010EBD37041F100015EEA430E08BF20EACB
:100A5000D37070BDC4F1200500FA05F24EEA020E13
:100A600020FA04F301FA05F243EA020321FA04F042
:100A700001F0004121FA04F220EA020000EBD370F9
:100A80005EEA430E08BF20EAD37070BD94F0000FF9
:100A90000FD101F00046400041EB010111F4801F2D
:100AA00008BF013CF7D041EA060195F0000F18BFDE
:100AB000704703F00046520043EB030313F4801F1A
:100AC00008BF013DF7D043EA0603704794EA0C0FD4
:100AD0000CEA135518BF95EA0C0F0CD050EA4106EA
:100AE00018BF52EA4306D1D181EA030101F0004167
:100AF0004FF0000070BD50EA410606BF104619468F
:100B000052EA430619D094EA0C0F02D150EA01369A
:100B100013D195EA0C0F05D152EA03361CBF1046DB
:100B200019460AD181EA030101F0004141F0FE417A
:100B300041F470014FF0000070BD41F0FE4141F4FE
:100B4000780170BD70B54FF0FF0C4CF4E06C1CEAFE
:100B500011541DBF1CEA135594EA0C0F95EA0C0FB3
:100B600000F0A7F8A4EB050481EA030E52EA03356E
:100B70004FEA013100F088804FEA03334FF080558F
:100B800045EA131343EA12634FEA022245EA1115BC
:100B900045EA10654FEA00260EF000419D4208BF6D
:100BA000964244F1FD0404F5407402D25B084FEA1A
:100BB0003202B61A65EB03055B084FEA32024FF4C6
:100BC00080104FF4002CB6EB020E75EB030E22BF23
:100BD000B61A754640EA0C005B084FEA3202B6EBE3
:100BE000020E75EB030E22BFB61A754640EA5C0092
:100BF0005B084FEA3202B6EB020E75EB030E22BF22
:100C0000B61A754640EA9C005B084FEA3202B6EB22
:100C1000020E75EB030E22BFB61A754640EADC00E1
:100C200055EA060E18D04FEA051545EA16754FEA43
:100C300006164FEAC30343EA52734FEAC2025FEA61
:100C40001C1CC0D111F4801F0BD141EA00014FF0F0
:100C500000004FF0004CB6E711F4801F04BF0143C1
:100C60000020B4F1FD0C88BFBCF5E06F3FF6AFAEDD
:100C7000B5EB030C04BFB6EB020C5FEA500C50F16D
:100C8000000041EB045170BD0EF0004E4EEA1131F0
:100C900014EB5C04C2BFD4EB0C0541EA045170BDF7
:100CA00041F480114FF0000E013C90E645EA060E3B
:100CB0008DE60CEA135594EA0C0F08BF95EA0C0F69
:100CC0003FF43BAF94EA0C0F0AD150EA01347FF4B1
:100CD00034AF95EA0C0F7FF425AF104619462CE788
:100CE00095EA0C0F06D152EA03353FF4FDAE1046EB
:100CF000194622E750EA410618BF52EA43067FF43C
:100D0000C5AE50EA41047FF40DAF52EA43057FF4CB
:100D1000EBAE12E700000000000000000000000041
:100D20004FEA4102B2F1E04324BFB3F5001CDCF10D
:100D3000FE5C0DD901F0004C4FEAC0024CEA507045
:100D4000B2F1004F40EB830008BF20F00100704774
:100D500011F0804F21D113F13872BCBF01F0004077
:100D6000704741F480114FEA5252C2F11802C2F1A9
:100D7000200C10FA0CF320FA02F018BF40F001002A
:100D80004FEAC1234FEAD32303FA0CFC40EA0C00DC
:100D900023FA02F34FEA4303CCE77FEA625307D119
:100DA00050EA01331EBF4FF0FE4040F44000704750
:100DB00001F0004040F0FE4040F40000704700BFEA
:100DC00080F0004002E000BF81F0004142001FBF00
:100DD0005FEA410392EA030F7FEA226C7FEA236C09
:100DE0006AD04FEA1262D2EB1363C1BFD2184140FE
:100DF00048404140B8BF5B42192B88BF704710F094
:100E0000004F40F4000020F07F4018BF404211F036
:100E1000004F41F4000121F07F4118BF494292EA9E
:100E2000030F3FD0A2F1010241FA03FC10EB0C00CA
:100E3000C3F1200301FA03F100F0004302D5494257
:100E400060EB4000B0F5000F13D3B0F1807F06D304
:100E500040084FEA310102F10102FE2A51D2B1F1FC
:100E6000004F40EBC25008BF20F0010040EA0300F1
:100E70007047490040EB000010F4000FA2F101029E
:100E8000EDD1B0FA80FCACF1080CB2EB0C0200FA28
:100E90000CF0AABF00EBC25052421843BCBFD04076
:100EA0001843704792F0000F81F4000106BF80F4F0
:100EB00000000132013BB5E74FEA41037FEA226CB3
:100EC00018BF7FEA236C21D092EA030F04D092F07E
:100ED000000F08BF0846704790EA010F1CBF0020B2
:100EE000704712F07F4F04D1400028BF40F000400F
:100EF000704712F100723CBF00F50000704700F02F
:100F0000004343F0FE4040F4000070477FEA226255
:100F100016BF08467FEA23630146420206BF5FEA26
:100F2000412390EA010F40F4800070474FF0000326
:100F300004E000BF10F0004348BF40425FEA000CED
:100F400008BF704743F0964301464FF000001CE095
:100F500050EA010208BF70474FF000030AE000BFEB
:100F600050EA010208BF704711F0004302D5404229
:100F700061EB41015FEA010C02BF8446014600209B
:100F800043F0B64308BFA3F18053A3F50003BCFAB6
:100F90008CF2083AA3EBC25310DB01FA02FC634463
:100FA00000FA02FCC2F12002BCF1004F20FA02F26A
:100FB00043EB020008BF20F00100704702F120025D
:100FC00001FA02FCC2F1200250EA4C0021FA02F2BE
:100FD00043EB020008BF20EADC707047000000000D
:100FE0004FF0FF0C1CEAD0521EBF1CEAD15392EA0C
:100FF0000C0F93EA0C0F6FD01A4480EA010C4002E8
:1010000018BF5FEA41211ED04FF0006343EA501041
:1010100043EA5111A0FB01310CF00040B1F5000F83
:101020003EBF490041EAD3715B0040EA010062F132
:101030007F02FD2A1DD8B3F1004F40EBC25008BF1C
:1010400020F00100704790F0000F0CF0004C08BF3A
:1010500049024CEA502040EA51207F3AC2BFD2F107
:10106000FF0340EAC250704740F400004FF0000315
:10107000013A5DDC12F1190FDCBF00F0004070474F
:10108000C2F10002410021FA02F1C2F1200200FA8D
:1010900002FC5FEA310040F1000053EA4C0308BF54
:1010A00020EADC70704792F0000F00F0004C02BFA5
:1010B000400010F4000F013AF9D040EA0C0093F020
:1010C000000F01F0004C02BF490011F4000F013B7A
:1010D000F9D041EA0C018FE70CEAD15392EA0C0FE8
:1010E00018BF93EA0C0F0AD030F0004C18BF31F053
:1010F000004CD8D180EA010000F00040704790F029
:10110000000F17BF90F0004F084691F0000F91F0CC
:10111000004F14D092EA0C0F01D142020FD193EA92
:101120000C0F03D14B0218BF084608D180EA01001A
:1011300000F0004040F0FE4040F40000704740F0F6
:10114000FE4040F4400070474FF0FF0C1CEAD052C4
:101150001EBF1CEAD15392EA0C0F93EA0C0F69D020
:10116000A2EB030280EA010C49024FEA402037D08B
:101170004FF0805343EA111143EA10130CF0004082
:101180008B4238BF5B0042F17D024FF4000C8B4272
:1011900024BF5B1A40EA0C00B3EB510F24BFA3EB52
:1011A000510340EA5C00B3EB910F24BFA3EB910322
:1011B00040EA9C00B3EBD10F24BFA3EBD10340EA7C
:1011C000DC001B0118BF5FEA1C1CE0D1FD2A3FF6C2
:1011D00050AF8B4240EBC25008BF20F00100704777
:1011E0000CF0004C4CEA50207F32C2BFD2F1FF031A
:1011F00040EAC250704740F400004FF00003013A4B
:1012000037E792F0000F00F0004C02BF400010F4EE
:10121000000F013AF9D040EA0C0093F0000F01F002
:10122000004C02BF490011F4000F013BF9D041EA24
:101230000C0195E70CEAD15392EA0C0F08D1420257
:101240007FF47DAF93EA0C0F7FF470AF084676E72A
:1012500093EA0C0F04D14B023FF44CAF08466EE703
:1012600030F0004C18BF31F0004CCAD130F00042D1
:101270007FF45CAF31F000437FF43CAF5FE700BF29
:101280004FEA4002B2F1FE4F0FD34FF09E03B3EB93
:1012900012620DD94FEA002343F0004310F0004FD3
:1012A00023FA02F018BF404270474FF00000704729
:1012B00012F1610F01D1420205D110F0004008BFC8
:1012C0006FF0004070474FF00000704700000000D2
:1012D000704700BFAFF30080AFF30080AFF3008032
:1012E000FEE700BFAFF30080AFF30080AFF30080F4
:1012F00072B6644C84F30988022383F31488BFF325
:101300006F8F61486149884218D2CA1C051D531B62
:1013100023F00302034610184FF055318342196041
:10132000C2F380020AD01AB185422B46296005D04B
:101330001D1D5960083383426960F9D15448A042A9
:1013400018D25449041D0A1B22F00305034628182D
:101350004FF0553183421960C5F380020AD01AB1AB
:1013600084422346216005D01D1D59600833834205
:101370006960F9D103F074FB4749484881421BD2A8
:10138000C61C0C1D321B464822F00302161D0568C0
:101390000423B3420D60C2F380020DD022B1456830
:1013A0000823B342256007D01D581A1D5D5084588C
:1013B0000833B3428C50F7D13A483B49884217D2A0
:1013C000CB1C041D1A1B22F003050346281800211C
:1013D00083421960C5F380020AD01AB184422346C1
:1013E000216005D01D1D5960083383426960F9D121
:1013F000FFF76EFF2D4D2E498D421DD2CC1C2E1DA8
:10140000A71BB808471C01242A6800EA0408904773
:10141000BC4211D0B8F1000F05D0336802249847C0
:10142000BC42354608D0696888470234A8682E1D3A
:1014300080470835BC42F6D1FEF75AFE1D4D1E4AC4
:1014400095421DD2D41C2E1DA71BBB085F1C012476
:10145000296803EA04088847BC4211D0B8F1000F9C
:1014600005D0306802248047BC42354608D06A68FF
:1014700090470234AB682E1D98470835BC42F6D120
:10148000FFF72EFF000800200000002000040020CD
:101490000004002003080020000800201C08002091
:1014A000006000082008002070110020EC000008F7
:1014B000EC000008EC000008EC000008AFF300802E
:1014C000FEE700BFAFF30080AFF30080AFF3008012
:1014D00072B6FEE7AFF30080AFF30080AFF3008099
:1014E00000F076F900F0C4FB00F08AF900DF00BFDD
:1014F000EFF30983203383F30988002383F31188F2
:10150000704700BFAFF30080AFF30080AFF30080FF
:1015100008B500224FF46D43CEF20003C0F2FA5238
:101520000021996007201021DA6000F0A9F80A2054
:101530004FF4007100F0A4F80B208021BDE80840B2
:1015400000F09EB8AFF30080AFF30080AFF30080EF
:10155000202383F311884FF46D43CEF200035868C3
:1015600010F4006319D0EFF30983A3F1200282F392
:101570000988124A4FF08070916943F8040C79B1E0
:101580001168D06989688268914294BF0022012263
:1015900082B10B4843F8080C704783F311887047F9
:1015A0001168D26988689268904234BF0022012293
:1015B000002AEED1034A43F8082C7047540D00204E
:1015C000E1140008EC140008AFF30080AFF30080D2
:1015D00008B500F06DF9202383F3118800F030F98D
:1015E00000F0B6F800F044F9002383F3118800F00E
:1015F0007FF9BDE80840FFF7ABBF00BFAFF3008045
:101600002DE9F04FC1F80CD0D0F80CD0BDE8F08F28
:1016100008B500F0F5F8002383F311882846A047A9
:1016200000F05EFC08BD00BFAFF30080AFF30080A8
:1016300000F0030370B4DA00FF2505FA02F500F0AC
:101640001F0401FA02F1012202FA04F24FF461438D
:101650008408CEF20003C03453F82460400926EA1F
:1016600005050D4300F1600643F8245043F8262099
:1016700043F8202070BC7047AFF30080AFF30080C8
:1016800000F0030310B4FF22DC0002FA04F201FAB6
:1016900004F180084FF46D43CEF20003063053F896
:1016A000204024EA02020A4343F8202010BC70477D
:1016B000024B034AD8698261FEE700BF540D002047
:1016C00040520008AFF30080AFF30080AFF300801A
:1016D00030B583B0FFF71CFF00F0FAF900F090F985
:1016E00000F076FE00F0BCFE00F052F940F620005B
:1016F0004021C2F2000000F0E3FA40F6545440F2F8
:101700000043C2F20003C2F200040125E06180F848
:101710002050C36100F044F8002383F3118862B6BF
:1017200045F2C031E269C0F60001916140F67000F7
:10173000009341F2B163C0212A46C0F60003C2F211
:10174000000000F03DFB03B030BD00BFAFF30080F0
:1017500038B500F0EDF8104B9A69002A01DD501EF3
:101760009861DA690D4C516A2368481C5062E2683E
:10177000511CA342E1600ED09D68013D9D6055B9AA
:101780001A68D9681869DD60546022608847236848
:1017900098680028F4D038BD540D0020440D002076
:1017A000054B186810B905490A6822B10448054B71
:1017B0001860FFF78DBE7047300900203C0D0020F7
:1017C00060520008400D0020AFF30080AFF30080AE
:1017D000074B10B51868074C08B9216821B1064AB3
:1017E000064B1A60FFF774FE0120206010BD00BF99
:1017F000300900203C0D002068520008400D0020F8
:10180000084B10B51868084C28B92168002902DD7A
:101810000020206010BD054A054B1A60FFF758FEF6
:10182000F6E700BF300900203C0D00207052000890
:10183000400D0020AFF30080AFF30080AFF30080D5
:10184000074B10B51868074C002801DD216821B14D
:10185000054A064B1A60FFF73BFE0120206010BDD1
:10186000300900203C0D002078520008400D002077
:10187000084B10B51868084C002805DD21680029C0
:1018800002DD0020206010BD044A054B1A60FFF7FE
:101890001FFEF6E7300900203C0D002080520008B2
:1018A000400D0020AFF30080AFF30080AFF3008065
:1018B00010B5202383F31188094C2168002902DB2D
:1018C000084A106828B10849084B1960FFF700FE64
:1018D00021684A1C2260002383F3118810BD00BFD9
:1018E000300900203C0D002088520008400D0020E7
:1018F00010B5202383F31188094C2168002902DDEB
:10190000084A106828B10849084B1960FFF7E0FD44
:1019100021684A1E2260002383F3118810BD00BF96
:10192000300900203C0D002090520008400D00209E
:10193000064B1868002804DB05490A68002A00DD08
:1019400070470448044B1860FFF7C2BD30090020FF
:101950003C0D002098520008400D0020AFF300809D
:10196000064B186820B906490A68002A00DD70474E
:101970000448054B1860FFF7ABBD00BF30090020DD
:101980003C0D0020A0520008400D0020AFF3008065
:1019900040F63413C2F200031A46402142F8081BF5
:1019A0005A607047AFF30080AFF30080AFF3008060
:1019B0000C4910B40C4ACC680C495368C9691C60C6
:1019C0005960846A03F110019C6090F8204002F590
:1019D000816081421C732ABF02F108035160536089
:1019E00010BC7047440D002034090020540D002025
:1019F00040F64053C2F200031860FFF769BD00BF14
:101A000040F64453C2F200034FF0FF3200205B6007
:101A10001B609A60D8607047AFF30080AFF300801E
:101A2000F8B505460C4616461F46FFF781FFCDB1B7
:101A3000C6B1BCB10D492F610B68EE609A68944243
:101A400004D91B68A41A9A68A242FAD358688B4238
:101A50002B60686005605D60AC6002D099680C1B0B
:101A60009C60F8BD0248FFF7C3FFE3E7440D002088
:101A7000B0520008AFF30080AFF30080AFF30080F6
:101A800010B50446FFF754FF84B1E36893B12068B2
:101A90000A4A904203D08168A368CA1882606268CB
:101AA000002110602068E160426010BD0448FFF72B
:101AB0009FFFEAE70348FFF79BFFE8E7440D00209C
:101AC000C0520008D0520008AFF30080AFF300808E
:101AD00040F65453C2F20003002214205B601B60E6
:101AE0009A6098615B611B61704700BFAFF3008033
:101AF00010B590F8203004468BB10E2B0FD0002289
:101B0000A168094884F82020006883688B42FBD2D2
:101B10004168206061600C604460204610BD03484D
:101B2000FFF766FFEBE700BF540D0020F0520008FE
:101B300090F820300D2B11D8DFE803F015101007B6
:101B4000100B101010101010100B816A8A68531CB3
:101B50008B6090E80C001A6001684B604FF0FF3218
:101B60008262FFF7C5BF7047AFF30080AFF300801C
:101B700070B5114C0646FFF7F3FE2368E5691A6855
:101B80001421012085F82060A16183F820005460B1
:101B900028462260E361FFF70BFFEB69ADF12402F9
:101BA000934202D90548FFF723FFE0692946BDE8C3
:101BB0007040FFF725BD00BF540D002004530008FE
:101BC00070B50C4686B00646FFF7CAFE631C12D0FD
:101BD0000B4D2146EB690B4A01A8FFF721FF304668
:101BE000FFF7C6FF049B13B101A8FFF749FFE8699F
:101BF000806A06B070BD3046FFF7BAFF004DF6E7C9
:101C0000540D0020311B0008AFF30080AFF30080BB
:101C100070B5154D04460E46FFF7A2FEE869A268AE
:101C20008368A6629A4215D9FFF762FF0121142248
:101C3000064684F82010AA61EC61FFF7B9FEF0694E
:101C4000ADF1240398420AD820463146BDE87040E1
:101C5000FFF7D6BC2046BDE87040FFF749BF0348F8
:101C6000FFF7C6FEF0E700BF540D00200453000844
:101C700038B5104C14212368E5691A68012083F8EF
:101C80002000A161284654602260E361FFF730FF25
:101C90002846FFF78DFEEB69ADF12402934202D98D
:101CA0000548FFF7A5FEE0692946BDE83840FFF783
:101CB000A7BC00BF540D002004530008AFF3008000
:101CC0002DE9F00140F65454C2F200046569002287
:101CD00000F13006816000F12C0C00F14C074FF050
:101CE0000208416401210461456180F8208060613F
:101CF00080F821200264C263426280F8221082616F
:101D00002861C0F82CC046630663C761BDE8F001D6
:101D1000704700BFAFF30080AFF30080AFF30080E7
:101D20002DE9F04704460D4690469946FFF700FE20
:101D30000CB1AF2D32D81D48FFF75AFE1C4EA5F14D
:101D40002403E7187169E76044F80390089B0025B5
:101D50007B60184B04F130023B62022304F12C0A31
:101D600004F14C0C84F8203001232661C4F808806B
:101D700061612046746184F82150C4F84480256470
:101D8000E563656284F82230A5610C61C4F82CA07B
:101D900062632263C4F81CC0BDE8F087B8F17F0F0E
:101DA000C9D8B9F1000FC9D1C5E700BF2053000859
:101DB000540D002011160008AFF30080AFF300802F
:101DC0002DE9F04F9B4683B080468946924600F14C
:101DD0004C0300F1010400F14D07FF26254604F8ED
:101DE000016C05F8016B6C1CBC42F7D108EB0907CC
:101DF000BB4215D218465526DA4300F8016BB918D4
:101E0000B84201F001030BD01BB100F8016BB842DE
:101E100006D0054605F8016B4670681CB842F8D13B
:101E2000202383F31188FFF7D3FC0C9C5B465246BA
:101E3000494600944046FFF773FF00210446FFF730
:101E4000E7FEFFF7DDFC002383F31188204603B093
:101E5000BDE8F08FAFF30080AFF30080AFF30080F8
:101E600010B5044610B90948FFF7C2FD202383F3DB
:101E70001188FFF7ADFC21460620FFF7A1FEFFF712
:101E8000BFFC002383F3118810BD00BF605300081E
:101E900038B5104BDC69254655F82C1FA062A942C5
:101EA00007D00A680846E262FFF722FEE16AA9420B
:101EB000F7D194F82100830704D1636922691A617C
:101EC00021694B610E20FFF753FE0348BDE83840FF
:101ED000FFF78EBD540D002070530008AFF3008053
:101EE00010B52023044683F31188FFF771FC2046C8
:101EF000BDE81040FFF7CCBFAFF30080AFF3008028
:101F000010B5044620B1002364602460A36010BDB6
:101F10000148FFF76DFDF6E7E0530008AFF30080DE
:101F2000F8B53B4B0546DC69FFF71AFD002D6BD079
:101F3000A868002836D0A2688168914208D290F83B
:101F400020308260042B45D0052B30D0002B1ED0D2
:101F500028460068854203D08168A2689142F8D281
:101F60004368206063601C604460A5620420FFF742
:101F7000FFFDA868A04202D02648FFF739FD216C7A
:101F8000A94213D02448BDE8F840FFF731BD90E8DE
:101F90000C001A600268012180F820105360FFF7DE
:101FA000A7FDD5E7206CAC60E8602564F8BD41680A
:101FB0000768866A0F600768334679601B689E422F
:101FC00002D099689142F9D25A6803604260106069
:101FD0005860BDE741680768866A0F600768334646
:101FE00079601B689E420DD099689142F9D25A6877
:101FF0000360426010605860B068A26883689342D2
:102000009DD3A5E73346F2E70448FFF7F1FC8FE7DD
:10201000540D00200054000814540008F053000828
:1020200010B52023044683F31188FFF7D1FB204627
:10203000FFF776FFFFF7E4FB002383F3118810BD61
:102040001E4A70B52023D56983F31188FFF7C0FBC2
:102050002C6C002C2DD0A368AB4203D01848FFF79E
:10206000C7FC2C6C2668E368A6422B641ED0696C02
:102070004BB11A689A4203D09068814238BF01463A
:10208000DB68002BF5D13368326CA96030462360E1
:1020900000215C60A660E2603464FFF7B9FDFFF7E1
:1020A000AFFB002383F31188204670BD0020A060A1
:1020B000F5E70448FFF79CFC2C6CCCE7540D00209E
:1020C000505400083C540008AFF30080AFF3008088
:1020D00038B504460D46FFF72BFCC4B1E26B94F80B
:1020E000203045EA0201082BE1630CD0092B00D017
:1020F00038BDA06A01408842FAD12046FFF7F8FCBB
:102100000023836238BDA26A1142F6D138BD02486D
:10211000FFF76EFCE2E700BFBC540008AFF300809D
:1021200070B505460E46FFF703FC5DB12C68A5426D
:1021300007D0A16860683143FFF7CAFF2468A54251
:10214000F7D170BD0148FFF753FCEFE7E0540008FA
:1021500010B4024659B1084B0D20DB699A625468ED
:1021600083E814005360236010BCFFF729BD4FF0D3
:10217000FF3010BC704700BF540D0020AFF300804B
:1021800010B48A180024406000608460416181615D
:10219000C1600261C36110BC704700BFAFF3008033
:1021A000F8B504460E46202383F31188FFF710FB91
:1021B000E3690BB120469847A5682046314655B9DA
:1021C000FFF7C6FF071EF7DAFFF71AFB2B4683F36C
:1021D00011883846F8BDA069013DA56010F8017B63
:1021E0002269A061904224BFE068A061FFF708FB6C
:1021F000002383F311883846F8BD00BFAFF3008099
:102200002DE9F0470446154688461E46C769002A50
:102210003AD0202383F31188FFF7DAFA08F1010A94
:102220004FF00009A8440FB12046B847A5682046E2
:1022300031465DB9FFF78CFF0028F7D0FFF7E0FAD1
:102240002B4683F311884846BDE8F087A369013D1A
:10225000A56013F8012B0AF8012C2069A3618342C1
:1022600024BFE368A361FFF7CBFA002383F311884F
:10227000C24509F10109E6D0202383F31188FFF755
:10228000A7FA0AF1010ACEE70148FFF7B1FBC0E760
:1022900020550008AFF30080AFF30080AFF300805B
:1022A00010B48C1840600060826041618161C1603F
:1022B0000461C36110BC7047AFF30080AFF30080CE
:1022C0002DE9F041202304468846164683F3118801
:1022D000FFF77EFAA568204631465DB9FFF738FF63
:1022E000071EF7DAFFF78CFA2B4683F3118838467E
:1022F000BDE8F0816369013DA56003F8018B2269A7
:102300006361934228BFE368E16928BF636109B153
:1023100020468847FFF774FA002383F311881F468D
:102320003846BDE8F08100BFAFF30080AFF3008016
:102330002DE9F0470446164688469A46D0F81C9088
:10234000002A39D0202383F31188FFF741FA0027B0
:10235000A56820466B1E0DB3A360656918F8011BC4
:1023600005F8011B22696561954224BFE26862613C
:10237000B9F1000F00D0C847FFF742FA002383F3FA
:1023800011880137013E14D0202383F31188FFF711
:102390001FFAA56820466B1E002DDDD12046514650
:1023A000FFF7D6FE0028D3D0FFF72AFA2B4683F397
:1023B00011883846BDE8F0870148FFF719FBC1E7EF
:1023C00034550008AFF30080AFF30080AFF3008016
:1023D00045F20001084840F6785240F67453C2F2C4
:1023E0000001C2F2000220F00700C2F2000321F057
:1023F000070110601960704777110020AFF300806B
:1024000010B50446FFF794FA074A084913680968AB
:10241000E01D20F00700C91A88429ABF1818106002
:102420000023184610BD00BF780D0020740D002059
:1024300010B52023044683F31188FFF7C9F920461D
:10244000FFF7DEFF0446FFF7DBF9002383F3118873
:10245000204610BDAFF30080AFF30080AFF30080E3
:1024600040F68053C2F2000342F231410022C0F62E
:10247000000103F1100019609A60DA60FFF740BDB7
:1024800008B501F065F800F0E3FC45F67050C0F6C1
:10249000000001F085FE00F013F800F0C1F800F034
:1024A0001FF900F0DDF900F0DBFDBDE8084002F0A7
:1024B000DFBA00BFAFF30080AFF30080AFF300805E
:1024C00001F0AEBAAFF30080AFF30080AFF300804D
:1024D00001230021037041600C30FFF711BD00BFE4
:1024E00038B504460D46D0B1C9B123785A1E012A29
:1024F00004D9052B02D00C48FFF77AFA202383F386
:102500001188FFF765F92046656001F0A1FA022005
:102510002070FFF775F9002383F3118838BD034855
:10252000FFF766FAE1E700BF605500085055000864
:1025300010B5044608B1A06810BD0248FFF758FA6C
:10254000A06810BD8C550008AFF30080AFF3008089
:102550002DE9F04685B004460F46924699460D9DFA
:102560000E9E08B1002928D11B48FFF741FA2078B8
:10257000022802D01948FFF73BFA202383F3118881
:10258000FFF726F90C9B00210322A1602270204650
:102590008DE8680039464B46524601F0B1FB431CBA
:1025A000054615D002232370FFF72AF9002383F391
:1025B0001188284605B0BDE8F086002BD4D0002A4B
:1025C000D2D015B10C9B002BCED0002ECFD1CBE7B3
:1025D00005202070E8E700BFA0550008C05500089E
:1025E00010B5044628B104F10C00BDE81040FFF717
:1025F00017BD0248FFF7FCF9F5E700BF14560008C5
:1026000008B518B1BDE80840FFF71ABD0148FFF74B
:10261000EFF9F7E728560008AFF30080AFF300802A
:1026200001F03EBCAFF30080AFF30080AFF3008059
:102630000123002103704160704700BFAFF30080A9
:1026400038B504460D46C0B1B9B1202383F31188D3
:10265000FFF7BEF82378581E012802D90948FFF772
:10266000C7F92046656001F02BFC02212170FFF7BD
:10267000C7F8002383F3118838BD0348FFF7B8F982
:10268000E3E700BF5056000840560008AFF3008053
:1026900010B50446A8B1202383F31188FFF798F8FA
:1026A0002378022B02D00948FFF7A2F9204601F057
:1026B0005FFC03202070FFF7A3F8002383F3118849
:1026C00010BD0348FFF794F9E5E700BF8C560008FA
:1026D0007C560008AFF30080AFF30080AFF30080BA
:1026E00001F0A6BCAFF30080AFF30080AFF3008031
:1026F000002301220270436083600C30FFF700BCAE
:1027000038B504460D46C0B1B9B1202383F3118812
:10271000FFF75EF82378581E012802D90948FFF711
:1027200067F92046656001F0ABFC02212170FFF7DC
:1027300067F8002383F3118838BD0348FFF758F981
:10274000E3E700BFD0560008C0560008AFF3008092
:1027500010B5044698B1202383F31188FFF738F8A9
:102760002378022B02D00848FFF742F9204601F0F7
:10277000EFFCFFF745F8002383F3118810BD0348F1
:10278000FFF736F9E7E700BF0C570008FC560008D2
:1027900070B504460D46164600B159BB1748FFF701
:1027A00027F9202383F31188FFF712F82378022BEF
:1027B00002D01348FFF71CF96068016811B1114895
:1027C000FFF716F90322227020462946324601F00F
:1027D000C7FCA36813B10C48FFF70AF90B490220A4
:1027E000CA69A260FFF7C4F9FFF70AF8002383F370
:1027F000118870BD002AD4D1D0E700BF98580008D6
:10280000A8580008BC58000824580008540D00209F
:1028100010B5044628B104F10C00BDE81040FFF7E4
:10282000FFBB0248FFF7E4F8F5E700BFD058000807
:1028300010B590F84230044680F84A3001F0D8FDD7
:102840006068026812B1204601219047032121707F
:1028500010BD00BFAFF30080AFF30080AFF3008086
:1028600001F096BDAFF30080AFF30080AFF30080BE
:10287000002301220270436083608381C38170471B
:1028800070B504460E4608B301B3202383F31188C4
:10289000FEF79EFF2378581E012802D90D48FFF746
:1028A000A7F800252046666025616561A561E561A0
:1028B00025626562A562E56201F072FD0221217068
:1028C000FEF79EFF2B4683F3118870BD0248FFF789
:1028D0008FF8DAE73059000820590008AFF300807C
:1028E000F8B504460E461546FFF722F8002C38D0FE
:1028F000002D36D02378042B02D01C48FFF778F83F
:10290000371D54F8270010B11948FFF771F82968EE
:1029100011F010031DD168691946024602F8013B07
:102920000132437002F8013B02F8013B02F8013B1F
:1029300002F8013B02F8013B02F8013B02F8013BBF
:1029400002F8013B02F8013B1370A869102202F063
:10295000DFFB2046314644F82750BDE8F84001F03F
:1029600057BD0448FFF744F8C4E700BF7459000896
:10297000905900085C590008AFF30080AFF3008065
:1029800070B504460D46FEF7D3FF9CB1E38943FAC8
:1029900005F010F0010601D0012070BD012202FAFD
:1029A00005F242EA0301E1812046294601F0E8FFF1
:1029B000304670BD0148FFF71BF8E7E7E45900080F
:1029C00070B504460D46FEF7B3FF9CB1A38943FAE8
:1029D00005F010F0010601D0012070BD012202FABD
:1029E00005F242EA0301A1812046294601F0D8FF01
:1029F000304670BD0148FEF7FBFFE7E7FC590008D1
:102A000010B40022034602240470A0F8482083F882
:102A10004A2080F84B208281C2810261426182613A
:102A2000C261026242628262C26283F8302010BCDC
:102A300001F06EBDAFF30080AFF30080AFF3008014
:102A4000F8B50023044680F8303000F1400201F070
:102A5000A7FD6068816800291ED020468847D8B14C
:102A6000A56B94F84030B4F84610A9423CBFA1636E
:102A70000D461B0677D4002D66D1042384F8303030
:102A8000204629462A462B4601F06AFF2046294661
:102A9000BDE8F84001F084BF94F8403013F06007BF
:102AA00011D00021204601F09BFF0021204601F0BB
:102AB00087FF61680A6812B120460521904705200A
:102AC00084F83000F8BD94F8416003F07F0242EAD8
:102AD0000626B6F5407F00F0A68016DDB6F5C06F7D
:102AE00000F0CB805EDDB6F5106F00F0B38040F6ED
:102AF0000240864269D0B6F5006FD2D1012504F1BB
:102B00004B016163A563E763ADE7022E74D057DD27
:102B1000B6F5807F60D0B6F5817FC2D194F84210BF
:102B20000029BED194F8445015F00F0107D02D06AE
:102B3000204600F1D98001F063FF94F84030002571
:102B40006563A563E5638EE70322002184F83020E6
:102B50002046626B2B4601F0EBFE20460021BDE8CB
:102B6000F84001F00DBF75B10123002184F8303029
:102B70002046626B2B4601F0F3FE20460021BDE8A3
:102B8000F84001F00DBF022084F8300029462046AD
:102B90002A462B4601F0CCFE20462946BDE8F840E7
:102BA00001F0EEBE40F2023086427BD0B6F5A06F57
:102BB0007FF477AF51496763A763E1633D4652E70E
:102BC000002E40D0012E7FF46CAF4D4A022500202C
:102BD0006263A563E06346E794F84220012A7FF42C
:102BE00060AFB4F84800676320F00201A4F8481011
:102BF000A763E7633D4636E794F84430204613F078
:102C0000800F03F00F0163D101F0A2FC012863D013
:102C100002287FF446AF3B4DA0636563E76394F8F9
:102C2000403005461FE794F84220012A7FF439AF6F
:102C3000B4F84800676340F00205A4F84850A76361
:102C4000E7633D460FE7022504F148006063A56392
:102C5000E66308E794F8425084F84B50002D34D1D5
:102C60000322227060680568002D3FF468AF20469B
:102C70000221A84794F8403061E7636820465D6808
:102C800094F8431094F84220B4F84430A847002840
:102C90003FF407AF4168056894F840306163A5636D
:102CA000E763E0E694F84220002A7FF4FAAE94F855
:102CB000445015F00F013FF442AF2A06204618D4C5
:102CC00001F07EFE94F8403039E704212170C9E715
:102CD00001F04EFC01289BD10B4AA6636263E763B7
:102CE00094F840303546BEE601F0A2FE94F840303C
:102CF00025E701F075FE94F8403020E73128000800
:102D00000059000810590008505A0008AFF300801D
:102D100038B590F830300446012B19D0042B10D070
:102D2000002101F05DFE2046002101F049FE6068AF
:102D3000026812B1204605219047052184F8301021
:102D400038BDC36B03B19847002084F8300038BD0C
:102D5000856BB0F84620AA4206D901690B8AB5FBFB
:102D6000F3F203FB125575B1002102200A460B460F
:102D700084F83000204601F0DBFD20460021BDE84C
:102D8000384001F0FDBD29462A462B4601F0E8FDFA
:102D900020462946BDE8384001F002BEAFF300806E
:102DA00038B590F830300446022B21D0032B11D0D7
:102DB0000021204601F014FE2046002101F000FE13
:102DC0006268136813B1204605219847052184F8ED
:102DD000301038BD002104250A460B4680F83050DB
:102DE00001F0BEFD20460021BDE8384001F0D8BD0D
:102DF00001698A69D368002BDAD1C16B01B18847B8
:102E0000002084F8300038BDAFF30080AFF30080BD
:102E10004FF48053CEF2000359688160704700BFC1
:102E20004FF48053CEF20003084982685B6809685A
:102E30009B1AC268591A9142816004D80369994269
:102E400038BF01617047C160704700BFA00D00200E
:102E500010B540F6A05486B00022C2F200044FF034
:102E6000FF304FF48053226004920590CEF20003AD
:102E7000596842F6116242F6216301A8C0F60002C9
:102E8000C0F60003019202930391FFF7C9FF039874
:102E9000206006B010BD00BFAFF30080AFF300802C
:102EA000806BD0F1010038BF00207047AFF3008085
:102EB0008069D0F1010038BF00207047AFF3008077
:102EC00070B52023054683F311880024FEF780FCAB
:102ED000AE68AC60FEF794FC234683F3118830465D
:102EE00070BD00BFAFF30080AFF30080AFF3008090
:102EF0002DE9F0418469D4F8D030D4F840801868C6
:102F0000E76B8689A56B06F002018EB20EB1BDE8B3
:102F1000F081FEF775FC334683F31188D4F8D02096
:102F2000C7EB08035B1B10680121E26B01F098FB03
:102F3000202383F31188FEF74BFCD4F8D0500121F5
:102F40002868FFF73DFDA168201D41F00802A2603E
:102F500031462546FFF7E4F8E36B216C55F8300F56
:102F6000CA1AA8426364A263D1D0036823635D6078
:102F7000FEF7BEFD8662206BA842F6D1BDE8F08167
:102F8000F8B54469D4F8D0301868C18901F0080256
:102F900093B20BB9A66906B1F8BDFEF731FC334612
:102FA00083F31188D4F8D050402303212868E269C4
:102FB00001F016FB2023074683F31188FEF708FC77
:102FC000D4F8D00003210068FFF7DAFCA168201DC7
:102FD00041F004022546A2603146FFF7A1F855F8FA
:102FE000100FE369A842A362A761D5D001682161EF
:102FF0004D60FEF77DFD86622069A842F6D1F8BDDE
:103000001030FFF7FDB800BFAFF30080AFF30080D2
:1030100010304FF0FF33FFF7F3B800BFAFF300807D
:103020003030FFF785B900BFAFF30080AFF3008009
:1030300030304FF0FF33FFF77BB900BFAFF30080B4
:103040001030FFF7ADB800BFAFF30080AFF30080E2
:103050003030FFF735B900BFAFF30080AFF3008029
:10306000704700BFAFF30080AFF30080AFF3008084
:1030700038B545F6A0230546C0F60003044645F8DA
:10308000043B65600025A56042F68173012500F1CF
:10309000100004F150014022C0F600032573FFF731
:1030A0006FF842F6F16304F1300004F19001402220
:1030B000C0F60003FFF7F4F86462A46438BD00BFF3
:1030C00038B504460D46E8B1202383F31188FEF796
:1030D0007FFB237B581E012802D90C48FEF788FC91
:1030E00029680222C4F8D0508C602273FEF788FB56
:1030F000002383F31188294651F8040BBDE83840BA
:10310000FFF7BEBB0248FEF773FCDDE7705A00080C
:10311000605A0008AFF30080AFF30080AFF3008087
:1031200090F8403003F06001202901D00020704762
:1031300090F84120212A03D0222A09D0202AF5D153
:1031400006490722002341638263C363012070475D
:10315000002343638363C36301207047000800209A
:10316000F8B5846805460E46202383F31188FEF7E0
:1031700067FB206CE26BA36B811ACF1A05D1FEF7B7
:1031800077FB002383F31188F8BDFEF771FB002362
:1031900083F311883B4628463146E26B01F060FA22
:1031A000202383F31188FEF74BFB28463146FFF7B7
:1031B00007FCA568201D45F008020021A2602546F5
:1031C000FEF7AEFFE36B216C55F8300FCA1AA84228
:1031D0006364A263D3D00026036823635D60FEF7B7
:1031E00087FC8662206BA842F6D1C8E7AFF3008067
:1031F0002DE9F0412023846805460F4683F31188AA
:10320000FEF71EFBA66936B1FEF732FB002383F3FF
:103210001188BDE8F081FEF72BFB334683F311885C
:10322000402328463946E26901F0DAF92023804636
:1032300083F31188FEF704FB28463946FFF7A0FB0D
:10324000A368201D43F00401A16025463146FEF726
:1032500067FF55F8100FE269A842A262C4F818800F
:10326000D2D0036823615D60FEF742FC866220696C
:10327000A842F6D1C8E700BFAFF30080AFF30080EB
:10328000704700BFAFF30080AFF30080AFF3008062
:1032900010B5FEF70DFB00230848C4F202031968BD
:1032A00002680F2401F00F015C600AB1406890478A
:1032B000FEF71EFBBDE81040FEF74AB9A40D002042
:1032C00010B5FEF7F5FA00230848C4F202031968A6
:1032D0008268F024C1F303115C600AB1C0689047B2
:1032E000FEF706FBBDE81040FEF732B9A40D002042
:1032F00010B5FEF7DDFA00230948C4F2020319688D
:1033000002694FF47064C1F303215C600AB1406943
:103310009047FEF7EDFABDE81040FEF719B900BF7F
:10332000A40D0020AFF30080AFF30080AFF3008066
:1033300010B5FEF7BDFA00230948C4F2020319686C
:1033400082694FF47044C1F303315C600AB1C06913
:103350009047FEF7CDFABDE81040FEF7F9B800BF80
:10336000A40D0020AFF30080AFF30080AFF3008026
:1033700010B5FEF79DFA00230948C4F2020319684C
:10338000026A4FF47024C1F303415C600AB1406AE1
:103390009047FEF7ADFABDE81040FEF7D9B800BF80
:1033A000A40D0020AFF30080AFF30080AFF30080E6
:1033B00010B5FEF77DFA00230948C4F2020319682C
:1033C000826A4FF47004C1F303515C600AB1C06AB1
:1033D0009047FEF78DFABDE81040FEF7B9B800BF80
:1033E000A40D0020AFF30080AFF30080AFF30080A6
:1033F00010B5FEF75DFA00230948C4F2020319680C
:10340000026B4FF07064C1F303615C600AB1406B02
:103410009047FEF76DFABDE81040FEF799B800BF7F
:10342000A40D0020AFF30080AFF30080AFF3008065
:10343000002040F6DC512DE9F0030346C2F2000102
:103440004FF0080940F6A4524FF01C084FF0300C22
:10345000442758266C2580240B60C2F20002C4F277
:103460000209C4F20208C4F2020CC4F20207C4F258
:103470000206C4F20205C4F20204C4F202004FF0D4
:10348000FF31C9F800301360C8F800309360CCF801
:10349000003013613B609361336013622B60936271
:1034A000236013634160BDE8F0037047AFF3008011
:1034B000F0B5044685B0002833D0657A012000FAC3
:1034C00005FC1D4E37681CEA070F26D11B484CEA45
:1034D000070700EBC50CCCF804307B0640F835201C
:1034E000376007D04FF48053C4F202035D6945F0A2
:1034F00001065E61236860681F6827F001051D6092
:10350000267A0F2707FA06F6002506601D6032B1FD
:10351000A07A0901FEF78CF8284605B0F0BD1046E8
:10352000FBE70748039102920193FEF761FA019BC2
:10353000029A0399C1E700BFDC0D0020A40D002012
:10354000D05A0008AFF30080AFF30080AFF30080E3
:103550004FF4805370B4C4F2020300214FF0FF35E2
:103560004EF2100241F63F141869CEF200021D61BE
:10357000C0F201041961DE684EF6F050DD60D960DA
:103580005460916007211160CEF20000C2684FF4D0
:10359000805142F08072C260CEF2000108684FF4A0
:1035A000E04240F001000860D969C4F2000241F035
:1035B0008050D861D96941F00060D861136843F444
:1035C0008071116070BCFFF733BF00BFAFF30080A4
:1035D0004FF48053C4F202031A68194642F0010006
:1035E00018600A684FF480539207C4F20203F8D5BA
:1035F0001968002201F0F900186019465A604868FD
:103600004FF4805310F00C0FC4F20203F7D11A6884
:10361000194642F4803018600A684FF480539003D2
:10362000C4F20203F8D55868194640F4E8125A600B
:10363000186840F080721A6008684FF48053820165
:10364000C4F20203F8D54FF4C8414FF40052C0F25F
:103650001D01C4F2020212205960106059681A4616
:1036600041F002005860536803F00C010829FAD1B8
:10367000704700BFAFF30080AFF30080AFF300806E
:10368000C26A036B30B4002114684FF400451D80FA
:1036900019809980998223680F2123F00103236008
:1036A000147A836A01FA04F450681A680460146892
:1036B000586824F0010414601B7A01FA03F10160D8
:1036C00030BC7047AFF30080AFF30080AFF30080F1
:1036D00038B5C46905465CB1FFF7D2FF00234FF04F
:1036E000FF312046EB61A162BDE83840FEF700BA29
:1036F00038BD00BFAFF30080AFF30080AFF30080B0
:1037000038B50B070546046B01D5FDF7E1FEEB6A02
:103710001A685968106820F0010010601B7A0F22A7
:1037200002FA03F00860A1888BB243F40072A28011
:1037300038BD00BFAFF30080AFF30080AFF300806F
:103740000A0770B50546046B2FD4AA6A20231168B6
:1037500050680E6826F001060E60127A0F2101FAF9
:1037600002F20260A08820F480510A04100CA080AC
:10377000218821F480621004010C2180228890B2FB
:1037800040F40071218083F31188FEF759F8EB694A
:103790002BB10022EA6118469A62FEF7A9F9FEF7FA
:1037A00067F8002383F3118870BDFDF791FECCE725
:1037B000F8B53F4DFEF77CF82C6B0223228BA68ACE
:1037C000C0F20303B6B246EA024020F07F419942BC
:1037D00037D010D80123C0F20303994201D12B8CBA
:1037E000238216F00A0F18BF238BFEF781F8BDE87D
:1037F000F840FDF7ADBE8223C0F20703994213D013
:103800008423C0F207039942EBD1AF6A3A68576844
:10381000002F31D02388298C98B241F0010240F466
:10382000A0632A842380E0E7A188E86A21F400727B
:1038300013040168180CA0800A6842F001030B60B1
:10384000CFE7A388A96A23F4007003040A68190C5F
:10385000A180106840F001031360A18888B240F491
:103860008053A3805368012BBBD8228822F4806147
:103870000804030C2380B4E7A088202320F40071FF
:103880000A04100CA08021888AB242F400702080C3
:1038900083F31188FDF7D4FFE86918B18762EF61FF
:1038A000FEF726F9FDF7E4FF002383F3118898E77C
:1038B000E00D0020AFF30080AFF30080AFF3008095
:1038C000F8B5554DFDF7F4FF2C6B202383F31188D9
:1038D000FDF7B6FFEA6AAB6A1068566807680F2101
:1038E00027F001070760107A1A6801FA00F03060CB
:1038F0001668586826F0010616601B7A01FA03F173
:103900000160FDF7B5FF002383F31188A18A01F45C
:10391000807293B233B1A08A012320F480710A042B
:10392000100CA082A18A01F4007290B238B1A18A71
:1039300043F0020321F400721004010CA182A28A58
:1039400002F4806081B291B1A28A43F0040322F4B0
:10395000806001040A0CA282A08820F400710A048D
:10396000100CA08021888AB242F400702080A18AC5
:1039700001F4006290B238B1A18A43F0080321F447
:1039800000621004010CA182A28A02F4805081B26C
:1039900039B1A28A43F0100322F4805001040A0CCA
:1039A000A282A08A00F480418AB20AB3A28A43F0BC
:1039B000200322F4804001040A0CA282A08A01B2F2
:1039C000002921DBAB60202383F31188FDF738FF4A
:1039D000E86938B16FF001020F4B00218262D961B2
:1039E000FEF786F8FDF744FF002383F3118805E016
:1039F000A08A01B2002907DB002BE3D1FDF778FF95
:103A0000BDE8F840FDF7A4BDA28A43F0400350048E
:103A1000410CA182D6E700BFE00D0020AFF300808B
:103A200010B540F6E054C2F200042046FEF750FD07
:103A3000064B4FF4A842C4F20002A3F10C0100208F
:103A4000E0612263A362E16210BD00BF585B000821
:103A500002788A23012A2DE9F04104464362056B6E
:103A600000F08D802E464FF09A089C466068E76A09
:103A7000A26A3B681168476805F11002C3F800802C
:103A800090F80880C1F800C04FF400408A609A6046
:103A90004FF410610023002F28802B80A98056DD71
:103AA000C0F23D018F4252DCB08848F2A06220F0A3
:103AB0003F031904080CB080B388C0F2010299B228
:103AC00041F024009742B08045DCB8F1010F02D0EC
:103AD0007B48FDF78DFF4FF4A2407F00C0F2252008
:103AE00090FBF7F207FB02F14FF4A243C0F225234B
:103AF000581A002840F08C804FF4A242C0F22522D0
:103B000092FBF7F7B9B203297AD93B0525201F0D9F
:103B1000B1F5805F308402D36A48FDF769FF6268BF
:103B2000206B1178B783038802299BB262D00329E6
:103B30005DD0012903D123F00A0213041B0C03807A
:103B4000288882B242F001032B80BDE8F0815E48F4
:103B5000FDF74EFFA8E74FF4D452C0F20602974299
:103B60000BDCA8F10203012B56D95848FDF740FFA2
:103B700048F6FF770B213184D1E70027CFE7544F78
:103B8000B8427FF46FAF4FF48051C4F2020108696C
:103B9000002240F400160E61A06A23460A610A2141
:103BA0004C4AFFF785FC002840F08280F86A0A2121
:103BB000494A474BFFF77CFC002875D14FF48053EE
:103BC000C4F20203D9691F2041F40016DE61A0216E
:103BD000FDF72EFD2020A021FDF72AFD786A3E6B1F
:103BE00040F4805CC7F824C04CF010083EE743F076
:103BF0000A03A4E74FF6F771194041F002039EE76C
:103C00003648FDF7F5FE3A052521170D318486E784
:103C10003348FDF7EDFE6FE7B8F1020F1FD14FF407
:103C2000A24107EB4707C0F2252191FBF7F007FB04
:103C300000F24FF4A243C0F22523991A59B94FF468
:103C4000A240C0F2252090FBF7F76FEA47426FEAE7
:103C500052439FB28EE72348FDF7CAFEEFE7B8F163
:103C6000030F29D107EB87074FF4A24107EB870722
:103C7000C0F2252191FBF7F007FB00F24FF4A243BD
:103C8000C0F22523991A59B94FF4A240C0F2252059
:103C900090FBF7F76FEA87426FEA92439FB269E7BA
:103CA0001148FDF7A5FEEFE71048FDF7A1FE85E7F7
:103CB0000F48FDF79DFE79E748F6FF775AE700BF0A
:103CC000B05B0008405C0008985B0008F85B0008E7
:103CD000E00D00204137000801370008E05B0008D4
:103CE000C85B0008105C0008285C0008845B0008C2
:103CF000705B0008AFF30080AFF30080AFF300808B
:103D00002DE9F04E86B00F9F06468B4692469946A7
:103D1000109D046B27B1012F5FD90E9B002B5CD047
:103D2000681C05D001A82946364A3346FDF778FEBF
:103D3000FDF766FD002383F31188F16AB26A086813
:103D40001168B3600E9B4FEA4B0BA6F820B0C0F889
:103D50000CA0C0F80490CB604F6004E0FDF750FD6C
:103D6000002383F31188228B202302F0020081B20A
:103D700021B9228802F4007081B269B183F31188FD
:103D8000FDF726FD691CE9D0049A002AE6D14FF020
:103D9000FF3006B0BDE8F08E83F31188FDF718FD03
:103DA0006A1C1ED004990029F1D0A388164D9AB23E
:103DB00042F40070A0802188EB698AB242F48070DE
:103DC00020800220F361FDF7D3FE049911B101A810
:103DD000FDF756FEEB69986ADBE70C48FDF708FE35
:103DE0009EE7A388084D9AB242F40070A080218813
:103DF000EB698AB242F4807020800220F361FDF703
:103E0000B7FEE7E7D1360008540D00207C5C0008BF
:103E100038B5104CE3681A8A9D89ADB21540E94364
:103E200005F0020089B282B2198242B123780420DF
:103E3000032B207003D061682046CA68904705F0C4
:103E40000405ADB22DB16368052020709968014862
:103E5000884738BD140E0020AFF30080AFF3008018
:103E600008B5FDF725FDFFF7D3FFFDF741FDBDE8E0
:103E70000840FDF76DBB00BFAFF30080AFF30080DB
:103E800008B5FDF715FDFFF7C3FFFDF731FDBDE8F0
:103E90000840FDF75DBB00BFAFF30080AFF30080CB
:103EA00010B540F61464C2F200042046FEF7C0FBD1
:103EB0004FF43053C4F20103E36010BDAFF3008050
:103EC00038B503780446012B2BD0C068002202804D
:103ED000828102824263826342626268A3685068A0
:103EE000B3FBF0F14D1EB5F5803F03D200FB01F1AD
:103EF0008B4203D01A48FDF77BFD6268E3681078B7
:103F00004FF6FF71ADB21D8540F20122D9625421F6
:103F10001A83198110B11320188438BD31221A84F4
:103F200038BD10498842D8D14FF48055C4F20205FB
:103F3000AB6943F40060A861EA68002342F40061C1
:103F4000E9601B20EB6070214FF42245FDF770FB08
:103F5000C0F24A4519207021FDF76AFBA560BCE755
:103F6000A05C0008140E0020AFF30080AFF30080C7
:103F70004268C368D1680020188221B1998988B24B
:103F800040F002019981926822B1988981B241F092
:103F900004029A8105201880704700BFAFF30080AB
:103FA0000B0700D47047FDF793BA00BFAFF3008052
:103FB0000A0770B5044635D4626A236A10685568EA
:103FC00006680F2126F001060660107A1A6801FAC9
:103FD00000F028601568606825F0010515601D7AFD
:103FE0005A6801FA05F103681160C3B10421204643
:103FF000217098472078042811D0A56875B1002653
:10400000A660202383F31188FDF71AFC2846FDF7EC
:104010006FFDFDF72DFC334683F3118870BD02253B
:104020002570EAE7FDF754FAC6E700BFAFF300805A
:1040300010B540F62864C2F2000440F62463C2F2D0
:1040400000034FF6FF7220461A80FEF751FB084826
:1040500041F20A024FF46053C4F2000300F10C0174
:10406000A2620E32E36120626162E26210BD00BFB3
:10407000345B0008AFF30080AFF30080AFF3008043
:1040800038B503780446012B27D0C369606842899C
:10409000A06A02F4006189B2B9B1E16A20F47060EB
:1040A00021F4706140F4A06041F4A061A062E1627B
:1040B00042F480620020012118801A8099801A88B9
:1040C00090B240F04001198038BDE16A20F4706080
:1040D00021F47061A062E162EAE7164DA84209D0BE
:1040E000626A206AE3691168006803F10C02826069
:1040F0008A60CBE7006A0A210F4A2346FFF7D8F906
:1041000078B9686A0A210D4A0A4BFFF7D1F960B9FC
:104110004FF48050C4F20200C26942F48041C16190
:10412000DEE70748FDF764FCEBE70648FDF760FCB7
:10413000EEE700BF280E0020B13F0008A13F0008B5
:10414000C05C0008D45C0008AFF30080AFF30080CF
:10415000436801211A89586801FA02F343617047E4
:1041600070B4436A046A866A24681B68C56A40F6AC
:104170002460C2F2000046F08006E26061602660C2
:10418000D86059601D60226842F001012160186802
:1041900040F001021A6070BC704700BFAFF30080AE
:1041A0004FF48053C4F202039A6910B442F07D01C7
:1041B000996104684FF40062C4F20102D46081681E
:1041C0004FF4406351604468C4F201031460C26854
:1041D0004FF48051DA604469C4F201015C60046903
:1041E0004FF4A0521C608369C4F20102CB60046AE0
:1041F0004FF4C0534C60C469C4F201030C60416ABF
:10420000D160C16A5160816A1160026BDA60816BB2
:104210005960406B186010BC704700BFAFF300805E
:10422000032AF0B400F09980042A08BF41614C4B86
:1042300001F080049B5C002C01F4004214BF1F4677
:10424000002714BF00260F26002A14BF1D46002594
:104250004FEA41024FEA06140CBFF026002639014E
:104260002D0112F0800F14BF194344F00F0412F413
:10427000004F14BF1D4346F00F06520024013601C3
:1042800009012D0112F0800F14BF194344F00F04EF
:1042900012F4004F14BF1D4346F00F0652002401D4
:1042A000360109012D0112F0800F14BF194344F0AB
:1042B0000F0412F4004F14BF1D4346F00F065200C6
:1042C0002401360109012D0112F0800F14BF19439A
:1042D00044F00F0412F4004F14BF1D4346F00F06C4
:1042E00052002401360109012D0112F0800F14BF84
:1042F000194344F00F0412F4004F14BF1D4346F05D
:104300000F0652002401360109012D0112F0800F21
:1043100014BF194344F00F0412F4004F14BF1D439F
:1043200046F00F0652002401360109012D0112F05A
:10433000800F14BF194344F00F04120448BF1D43FB
:10434000436858BF46F00F061E403543456002687B
:10435000144021430160F0BC7047016167E700BF72
:10436000F05C0008AFF30080AFF30080AFF3008093
:1043700008B5FDF79DFAFDF7BBFABDE80840FDF76B
:10438000E7B800BFAFF30080AFF30080AFF3008069
:1043900040F65860C2F20000FEF76ABAAFF3008040
:1043A00038B503780446012B00D038BD0F4A90423F
:1043B00004D02046BDE83840FEF722BB4FF48050C1
:1043C000C4F20200C1694FF4B84541F40002C4F2DE
:1043D0000005C26160212B641320FDF729F9142028
:1043E000E021FDF725F900232B64E2E7580E0020B9
:1043F00090F84A204FF4B84342F08000C4F2000322
:10440000D8647047AFF30080AFF30080AFF3008053
:104410000B1D2DE9F04150F823400546226802F0BB
:104420000306731E022B96BF35484FF4007330F815
:104430001330A06808B143F02003E7684FB1D206FB
:1044400050D5012202FA01F2EE8943F4405332437F
:10445000EA8143EA010020F4F0474FF4B842C4F285
:10446000000227F0700642F8216052F8217047F6EA
:1044700070001840638A784042F821005A1E3E2B93
:1044800033D842F00106771C07EBD770420202F4E2
:104490007C404FF4B847C4F200073A6DD5F84C8021
:1044A000268A02F1005707F5405202EBC10146444B
:1044B0004F000022B6F5007FBA80B881EE6404D9BF
:1044C0001048FDF795FA638AEE6C9819B0F5007FF5
:1044D000C7F80080E86402D90A48FDF789FABE608F
:1044E000BDE8F08143F40053B3E742F01F06771CA8
:1044F0007A116FEAC2606FEA5046B0B2C9E700BFF6
:10450000305D0008405D0008AFF30080AFF300802D
:10451000416830B44FF4B843CD680024C4F20003BE
:104520001C65A54214BF4FF41E454FF41C455C6446
:1045300021468024DC641D644023C364024B036174
:1045400030BCFFF765BF00BF505D0008AFF30080CF
:104550004FF4B843C4F2000353F8210010F4405064
:1045600004D0B0F5805F0CBF01200220704700BF6F
:104570004FF4B843C4F2000353F8210000F03001B7
:10458000102902D8024A505C70470220704700BFD1
:10459000105D0008AFF30080AFF30080AFF3008040
:1045A0004FF4B843C4F20003186D10B400F1005486
:1045B00004F5405303EBC1014800846804F1005343
:1045C00003F5405148000468031D0BCB1480508054
:1045D0009180D38010BC7047AFF30080AFF30080B0
:1045E0004FF4B840C4F2000070B4046D04F1005000
:1045F00000F5405404EBC10148008468818904F14E
:1046000000548805800D834228BF034604F54051BD
:1046100001334C0059081CD02568013922F8025B8F
:104620000B46023201F001019BB131B154F8041F75
:1046300022F8021C0232013B0BD0251D6668A468DB
:10464000114622F8026C21F8024B8A1C2C1D023BF9
:10465000F3D170BC704700BFAFF30080AFF30080B0
:104660004FF4B840C4F2000030B4046D04F10055BA
:1046700005F5405000EBC101480004689DB204F10B
:10468000005101F54054591C8580630048081DD035
:10469000013832F8024B014643F8044B00F00100A8
:1046A000023299B130B132F8020C0232013943F8CA
:1046B000040B0BD032F8025C184632F8024B40F87B
:1046C000045B02325C60031D0239F3D130BC7047D9
:1046D0002DE9F84FFDF7ECF84FF4B843C4F20003AE
:1046E0005C6C620500F10E81230514D58E484FF4F1
:1046F000B843C4F200034268196C126841F0080123
:1047000019640AB1032190474FF4B840C4F2000085
:104710006FF400634364E0040ED54FF4B843C4F271
:1047200000039A6C110440F1E0804FF4B840C4F2E9
:1047300000006FF480534364A2050BD57A484168AA
:10474000CA6802B190474FF4B840C4F200006FF459
:1047500000734364230440F19F80DFF8CC814FF461
:10476000B845C4F20005C1464FF0010A11E00AFA4B
:1047700004F1B8F80E0058F82B3020EA0100A8F830
:104780000E00DA686848214690476C6C210440F1BD
:10479000838004F00F0455F8246004F1040B300604
:1047A00058F82B7036D555F8241021F4F14222F038
:1047B000700045F824003B68D90673D42A6D7969E6
:1047C00002F1005000F5405303EBC4025000B0F872
:1047D00004E00A6888684B681FFA8EFC62446044F3
:1047E000CCEB03030A6088604B60002B5AD0B7F80B
:1047F00010E04D482146734528BF7346FFF730FF50
:1048000055F8241021F4F04222F0400383F03000E8
:1048100045F824003204B8D555F82400330520F4B7
:10482000784121F0700245F8242048D43B68D8062E
:104830009DD4BB69E6B25A6831469B683A48FFF797
:10484000CFFE55F82410BB6921F4904EB3F800C098
:104850002EF070025F68D96882F4405E9A680CF1AD
:10486000FF3C3F180918101A1FFA8CF2986045F89F
:1048700024E05F60D9601A80002A27D055F8241000
:1048800021F4904323F0700080F4405245F8242036
:104890006C6C21043FF57DAFFDF72AF8BDE8F84FB9
:1048A000FCF756BE0AFA04F1B9F80C20BB6822EAFC
:1048B0000102A9F80C201C4821469847AAE758F89D
:1048C0002B1019484B68214698475EE70AFA04F412
:1048D000B9F80E1059F82B3021EA0400A9F80E009F
:1048E000DA681148314690474FE70F48196C426823
:1048F00021F0080112681964002A3FF416AF042160
:10490000904712E7084D2846FEF77AF86868026873
:1049100012B12846002190474FF4B841C4F200017B
:104920006FF480634B64DFE6580E0020AFF3008025
:10493000043150F8210081694A6000228B60CA600E
:1049400033B1428A501EC318B3FBF2F20A8070479B
:1049500001200880704700BFAFF30080AFF30080F4
:1049600070B40C1D50F8245000266C692D8A84E820
:104970000C00AB4228BF2B46A66070BCFFF770BE90
:104980004FF4B843C4F2000353F8212022F49040BE
:1049900020F0700282F4405043F82100704700BFBD
:1049A0004FF4B843C4F2000353F8212022F4F0403E
:1049B00020F0400282F0300043F82100704700BF31
:1049C0004FF4B843C4F2000353F8212022F490407E
:1049D00020F0700282F4805043F82100704700BF3D
:1049E0004FF4B843C4F2000353F8212022F4F040FE
:1049F00020F0400282F0100043F82100704700BF11
:104A00004FF4B843C4F2000353F8212002F440509D
:104A1000B0F5405F09D053F8212022F4F04020F097
:104A2000400282F4005043F821007047AFF3008049
:104A30004FF4B843C4F2000353F8212002F03000D1
:104A4000302809D053F8212022F4F04020F0400211
:104A500082F0200043F82100704700BFAFF30080D0
:104A6000FEF7B6BDAFF30080AFF30080AFF3008078
:104A7000704700BFAFF30080AFF30080AFF300805A
:104A8000F0B4064600F10B0700F10A04B1FBF2F5A1
:104A900002FB151101F13003392BC8BF01F13703B7
:104AA000DBB22046294604F80139002DEED13A1A2E
:104AB0000146B018F2438218D2070AD506F8013B26
:104AC00011F8013F05E011F8013F737011F8013F43
:104AD000561C324602F8013B8242F4D1F0BC7047CA
:104AE0000EB42DE9F04F86B00FAB0DF10D0C53F85D
:104AF000044B0DF10C0B0546CBEB0C00CDF800C0C0
:104B000002930190264616F8011B69B1252910D0A1
:104B10002C682846236934464FF0FF3226469847D2
:104B200016F8011B0029F1D106B0BDE8F04F03B023
:104B3000704763782D2B00F08E814FF000082E2BEC
:104B400000F08581202734460299002606E00A7885
:104B5000043106EB8606237802EB4606A3F1300209
:104B6000D2B20134092AF4D92A2BF0D000202E2BFE
:104B7000029149D06C2B55D04C2B53D0A3F141015D
:104B800019298CBF00210121A3F14402342A00F22B
:104B90005881DFE812F047015601560156015601CF
:104BA000560156015601560156015601450156015E
:104BB00056015601560156013D015601560130017C
:104BC000560156015601560156015601560156012D
:104BD00056015601EB004701560156015601560198
:104BE000560156015601560156015601450156011E
:104BF000560156014F0056013D0156015601300144
:104C00000A78043102EB490014F8013B00EB8009FB
:104C1000A3F13002D2B2092AF4D92A2BF0D06C2B9E
:104C20000291A9D12178002900F01A810B460134A4
:104C30000121A9E7029F45F6B0593B68C0F600097B
:104C4000002B18BF9946391D99F8007047F6FF727E
:104C50000291002808BF1046002F00F01F8199F82C
:104C60000130411E09EB000A09F1010201F00100C7
:104C7000B3B19245134600F00D8160B1577801320F
:104C800077B19245134606D104E1577801323FB11E
:104C90009A4500F0FF8058785A1C531C0028F4D124
:104CA000C9EB020ACAEB0606202726EAE676B8F127
:104CB000000F6CD0BAF1000F2DDDC846286818F837
:104CC000011BCA446FEA090C03694FF0FF32284602
:104CD0000AEB0C099847D04509F001091BD0B9F13E
:104CE000000F03D02A6818F8011B0DE02868C146A0
:104CF00019F8011B4FF0FF320369284698472A68CC
:104D000098F8011009F10108136928464FF0FF32A5
:104D10009847D045EAD1002E3FF4F4AE2968731EBF
:104D2000D1F810C01E46284639464FF0FF3203F036
:104D30000108E047002E3FF4E5AEB8F1000F03D0C4
:104D40002A68284613690AE02868394603694FF043
:104D5000FF32284698472968013E0B6928463946A4
:104D60004FF0FF329847013EEED1CBE60298DDF8D6
:104D700004A00268011D02918DF80C202027D9465D
:104D8000CAEB060626EAE676B8F1000F92D1764223
:104D9000002E8FD099F800102D296ED029686FEA67
:104DA000060E0B69284639464FF0FF320EF0010817
:104DB000984701363FF47EAFB8F1000F09D02A685A
:104DC0002846136939464FF0FF32984701363FF4C1
:104DD00071AF2868394603694FF0FF32284698477B
:104DE0002A6801361369284639464FF0FF32984742
:104DF0000136EED15EE71022029B69B1191D0291C6
:104E000019685846FFF73CFED946CBEB000AB7E7D6
:104E10000A22029B0029F1D1181D19680290F0E7BF
:104E20000822E9E7029B1A1DE1B9196802920029DC
:104E30001CDB58460A22FFF723FED946CBEB000ABB
:104E40009EE78DF80C30DDF804A0D94698E773781A
:104E50003027013677E6A61CA3784FF001086EE6EE
:104E6000012191E6196802920029E2DA2D208DF8DD
:104E70000C0049420DF10D00DCE7302F8ED12B687C
:104E800028461B694FF0FF32984709F101090AF1E2
:104E9000FF3A83E7C9EB0A0A202771E7BA462027C1
:104EA0006EE700BFAFF30080AFF30080AFF3008088
:104EB000022906D0032906D00748012918BF00207F
:104EC000704706487047032A03D8054800EBC20024
:104ED00070470020704700BF705E0008705F0008D8
:104EE000105F0008AFF30080AFF30080AFF30080E5
:104EF0004FF48053C268C4F201034FF4806110B4D0
:104F00001961906B0849441CA2B20B68074C581CED
:104F10002280074C042824F8132002D0086010BC1B
:104F2000704700230B60FAE7FC0F002018080020F0
:104F3000D40F0020AFF30080AFF30080AFF3008008
:104F40000A4B70B5D8694FF48054094A25468261EE
:104F5000C4F201042E4666614FF4FA70FCF780FF3C
:104F600025614FF4FA70FCF77BFFF4E7540D002045
:104F7000905F0008AFF30080AFF30080AFF30080D4
:104F8000022938B50C46054618D1202383F3118831
:104F9000FCF756FC28460121094AFDF7A1FC2846EA
:104FA0002146084AFDF79CFC28460321064AFDF7E6
:104FB00097FCFCF75DFC002383F3118838BD00BF2C
:104FC000505E0008105E0008305E0008AFF30080FD
:104FD00010B5FDF775FA4FF4406440F6E05045F621
:104FE000F071C4F20104C2F20000C0F60001FDF746
:104FF00077FA402111222046FFF712F9204680213E
:105000001122FFF70DF94FF47A70BDE81040FCF75C
:1050100027BF00BFAFF30080AFF30080AFF3008085
:1050200070B5314884B0314DFDF7DAFA002404231D
:105030000293009401942C4829212A4601232C70C4
:10504000FDF786FA002848D1294D2A4C2E780020F9
:1050500076080422643600900190029222482A21A8
:10506000224601232670FDF773FA00282FD1224E25
:10507000002404210291009401941B482B21324604
:1050800001233470FDF764FAD8B92D781B4C6D08F4
:1050900000200423643500900190029312482C21D3
:1050A000224601232570FDF753FA20B10E48FDF783
:1050B0003FFA1349C8600C4804B0BDE87040FDF7E2
:1050C0009FBA0948FDF734FA0D4A9060DDE70648BB
:1050D000FDF72EFA0A4B5860C9E70348FDF728FA96
:1050E00007490860B0E700BFE00D00205A1100201A
:1050F000F00E00205B1100205C1100205D110020EB
:1051000060110020AFF30080AFF30080AFF30080A8
:10511000F0B48407034600F08D80541E002A00F08E
:105120008780E507CEB211D41A4602F8016B134608
:105130001546920710D0621E002C79D003F8016B3F
:1051400014469A071D4607D0013CEDE7034603F8D5
:10515000016B9A071D46F7D1032C52D9CEB246EA0D
:1051600006270F2C47EA07432DD9A4F11002174652
:105170000F2FC2F300162B606B60AB60EB6005F184
:10518000100216D93EB1103F136053609360D36094
:1051900010320F2F0DD9203F02F11006136053601B
:1051A0009360D360136153619361D36120320F2FF9
:1051B000F1D8A4F1100222F00F0204F00F04103213
:1051C000032C15441DD9271F3E462A46032E42F8BC
:1051D000043BC7F380070DD927B1043E032E42F8E4
:1051E000043B07D9174647F8043B083E53603A1D75
:1051F000032EF7D8231F23F00302131D04F003042A
:10520000ED18ACB1C9B2EA432C1905F8011BA3187B
:10521000A54203F001020BD01AB105F8011BA5420B
:1052200006D02B4603F8011B69705D1CA542F8D11E
:10523000F0BC7047054614468EE700BF0000000032
:1052400069646C65000000000000000000000000C0
:105250005356233100000000535623320000000053
:10526000535623330000000053562334000000003F
:10527000535623350000000053562336000000002B
:105280005356233700000000535623380000000017
:1052900053562339000000005356233130000000DC
:1052A00053562331310000000000000000000000D0
:1052B000226368565453657449222829000000006F
:1052C0002263685654526573657449222829000088
:1052D0006368565452657365744928292C2023311C
:1052E00000000000000000000000000000000000BE
:1052F000636853636852656164794928292C2023C7
:1053000031000000737461636B206F766572666CA8
:105310006F770000000000000000000000000000A7
:105320002263685468644372656174654922282960
:105330000000000022636854686453657450726909
:105340006F7269747922282900000000636854682C
:1053500064526573756D6528292C20233100000087
:10536000226368546864536C6565702228290000C4
:105370006368546864457869745328292C20233164
:105380000000000022636854686457616974222831
:105390002900000063685468645761697428292CE7
:1053A0002023310063685468645761697428292C8C
:1053B0002023320000000000000000000000000078
:1053C0006D61696E0016031104044C080C1014186A
:1053D0001C2021220024000000000000000000002A
:1053E0002263684D7478496E697422282900000090
:1053F0002263684D74784C6F636B53222829000038
:1054000063684D74784C6F636B5328292C202331CB
:105410000000000063684D74784C6F636B5328295B
:105420002C202332000000002263684D74785472EF
:10543000794C6F636B5322282900000063684D7418
:1054400078556E6C6F636B28292C20233100000087
:1054500063684D7478556E6C6F636B28292C20231C
:105460003200000063684D7478556E6C6F636B5347
:1054700028292C202331000063684D7478556E6C08
:105480006F636B5328292C2023320000000000009A
:1054900022636845767452656769737465724D61FD
:1054A000736B222829000000226368457674556ECC
:1054B00072656769737465722228290022636845E2
:1054C00076745369676E616C4922282900000000D8
:1054D0002263684576745369676E616C22282900DF
:1054E00022636845767442726F6164636173744DC0
:1054F00061736B49222829002263684576744469E8
:10550000737061746368222829000000636845761F
:1055100074446973706174636828292C20233100F6
:1055200022636849515265616454696D656F757491
:10553000222829002263684F5157726974655469A3
:105540006D656F75742228290000000000000000BE
:1055500022693263537461727422282900000000AA
:10556000693263537461727428292C20233100003E
:105570002269326353746F702228290069326353A1
:10558000746F7028292C20233100000022693263B7
:105590004765744572726F727322282900000000FB
:1055A000226932634D61737465725472616E736DFA
:1055B000697454696D656F757422282900000000B4
:1055C0006932634D61737465725472616E736D6993
:1055D0007454696D656F757428292C20233100007F
:1055E000226932634D6173746572526563656976D1
:1055F0006554696D656F7574222829006932634DA1
:1056000061737465725265636569766528292C201B
:10561000233100002269326341637175697265420A
:1056200075732228290000002269326352656C6577
:105630006173654275732228290000000000000094
:105640002269637553746172742228290000000076
:10565000696375537461727428292C20233100000A
:105660002269637553746F7022282900696375532A
:10567000746F7028292C2023310000002269637583
:10568000456E61626C6522282900000069637545DA
:105690006E61626C6528292C2023310022696375B4
:1056A00044697361626C652228290000696375444E
:1056B000697361626C6528292C2023310000000089
:1056C00022737069537461727422282900000000EB
:1056D000737069537461727428292C20233100007F
:1056E0002273706953746F70222829007370695394
:1056F000746F7028292C20233100000022737069F8
:1057000053656C6563742228290000007370695327
:10571000656C65637428292C20233100227370691D
:10572000556E73656C656374222829007370695522
:105730006E73656C65637428292C2023310000008A
:1057400022737069537461727449676E6F72652257
:1057500028290000737069537461727449676E6F11
:10576000726528292C202331000000002273706903
:10577000537461727445786368616E676522282985
:105780000000000073706953746172744578636837
:10579000616E676528292C2023310000227370690F
:1057A000537461727453656E6422282900000000EE
:1057B000737069537461727453656E6428292C2068
:1057C00023310000227370695374617274526563EF
:1057D0006569766522282900737069537461727453
:1057E0005265636569766528292C20233100000005
:1057F0002273706949676E6F7265576169742228F8
:105800002900000073706949676E6F726528292C42
:105810002023310073706949676E6F726528292CE7
:10582000202332005F7370695F7761697428292CC7
:10583000202331002273706945786368616E676563
:105840002228290073706945786368616E6765284E
:10585000292C20233100000073706945786368614A
:105860006E676528292C202332000000227370699E
:1058700053656E642228290073706953656E64282D
:10588000292C20233100000073706953656E642851
:10589000292C202332000000227370695265636551
:1058A000697665222829000073706952656365690D
:1058B000766528292C20233100000000737069527E
:1058C00065636569766528292C2023320000000075
:1058D000227370694163717569726542757322281C
:1058E000290000002273706952656C65617365421E
:1058F000757322282900000000000000000000004D
:105900000000000000000000000000000000000097
:105910000000000000000000000000000000000087
:10592000227573625374617274222829000000008A
:10593000757362537461727428292C20233100001E
:105940002275736253746F70222829007573625335
:10595000746F7028292C2023310000002275736297
:10596000496E6974456E64706F696E7449222829A6
:1059700000000000757362456E61626C65456E647F
:10598000706F696E744928292C20233100000000B3
:10599000757362456E61626C65456E64706F696EA9
:1059A000744928292C2023320000000022757362DC
:1059B00044697361626C65456E64706F696E74737F
:1059C00049222829000000007573624469736162EE
:1059D0006C65456E64706F696E74734928292C205C
:1059E00023310000227573625374617274526563CF
:1059F00065697665492228290000000022757362D6
:105A000053746172745472616E736D6974492228A3
:105A100029000000227573625374616C6C526563D7
:105A200065697665492228290000000022757362A5
:105A30005374616C6C5472616E736D697449222881
:105A4000290000000000000000000000000000002D
:105A50000100000000000000000000000000000045
:105A60002273647553746172742228290000000047
:105A7000736475537461727428292C2023310000DB
:105A800022736453746F7022282900007364755365
:105A9000746F7028292C20233100000000000000C2
:105AA0003130000811300008A12E0008B12E000886
:105AB0005130000841300008213000080130000852
:105AC000C12E0008000000000000000000000000DF
:105AD00022646D61416C6C6F6361746522282900DA
